{
  "_format": "hh-sol-artifact-1",
  "contractName": "NFTCollectible",
  "sourceName": "contracts/NFTCollectible.sol",
  "abi": [
    {
      "inputs": [
        {
          "internalType": "string",
          "name": "baseURI",
          "type": "string"
        }
      ],
      "stateMutability": "payable",
      "type": "constructor"
    },
    {
      "anonymous": false,
      "inputs": [
        {
          "indexed": true,
          "internalType": "address",
          "name": "owner",
          "type": "address"
        },
        {
          "indexed": true,
          "internalType": "address",
          "name": "approved",
          "type": "address"
        },
        {
          "indexed": true,
          "internalType": "uint256",
          "name": "tokenId",
          "type": "uint256"
        }
      ],
      "name": "Approval",
      "type": "event"
    },
    {
      "anonymous": false,
      "inputs": [
        {
          "indexed": true,
          "internalType": "address",
          "name": "owner",
          "type": "address"
        },
        {
          "indexed": true,
          "internalType": "address",
          "name": "operator",
          "type": "address"
        },
        {
          "indexed": false,
          "internalType": "bool",
          "name": "approved",
          "type": "bool"
        }
      ],
      "name": "ApprovalForAll",
      "type": "event"
    },
    {
      "anonymous": false,
      "inputs": [
        {
          "indexed": false,
          "internalType": "string",
          "name": "message",
          "type": "string"
        }
      ],
      "name": "NewSendMessage",
      "type": "event"
    },
    {
      "anonymous": false,
      "inputs": [
        {
          "indexed": false,
          "internalType": "uint256",
          "name": "tokenId",
          "type": "uint256"
        }
      ],
      "name": "NewTotalMintCount",
      "type": "event"
    },
    {
      "anonymous": false,
      "inputs": [
        {
          "indexed": true,
          "internalType": "address",
          "name": "previousOwner",
          "type": "address"
        },
        {
          "indexed": true,
          "internalType": "address",
          "name": "newOwner",
          "type": "address"
        }
      ],
      "name": "OwnershipTransferred",
      "type": "event"
    },
    {
      "anonymous": false,
      "inputs": [
        {
          "indexed": true,
          "internalType": "address",
          "name": "from",
          "type": "address"
        },
        {
          "indexed": true,
          "internalType": "address",
          "name": "to",
          "type": "address"
        },
        {
          "indexed": true,
          "internalType": "uint256",
          "name": "tokenId",
          "type": "uint256"
        }
      ],
      "name": "Transfer",
      "type": "event"
    },
    {
      "inputs": [],
      "name": "MAX_PER_MINT",
      "outputs": [
        {
          "internalType": "uint256",
          "name": "",
          "type": "uint256"
        }
      ],
      "stateMutability": "view",
      "type": "function"
    },
    {
      "inputs": [],
      "name": "MAX_SUPPLY",
      "outputs": [
        {
          "internalType": "uint256",
          "name": "",
          "type": "uint256"
        }
      ],
      "stateMutability": "view",
      "type": "function"
    },
    {
      "inputs": [],
      "name": "PRICE",
      "outputs": [
        {
          "internalType": "uint256",
          "name": "",
          "type": "uint256"
        }
      ],
      "stateMutability": "view",
      "type": "function"
    },
    {
      "inputs": [
        {
          "internalType": "address",
          "name": "to",
          "type": "address"
        },
        {
          "internalType": "uint256",
          "name": "tokenId",
          "type": "uint256"
        }
      ],
      "name": "approve",
      "outputs": [],
      "stateMutability": "nonpayable",
      "type": "function"
    },
    {
      "inputs": [
        {
          "internalType": "address",
          "name": "owner",
          "type": "address"
        }
      ],
      "name": "balanceOf",
      "outputs": [
        {
          "internalType": "uint256",
          "name": "",
          "type": "uint256"
        }
      ],
      "stateMutability": "view",
      "type": "function"
    },
    {
      "inputs": [],
      "name": "baseTokenURI",
      "outputs": [
        {
          "internalType": "string",
          "name": "",
          "type": "string"
        }
      ],
      "stateMutability": "view",
      "type": "function"
    },
    {
      "inputs": [
        {
          "internalType": "uint256",
          "name": "tokenId",
          "type": "uint256"
        }
      ],
      "name": "getApproved",
      "outputs": [
        {
          "internalType": "address",
          "name": "",
          "type": "address"
        }
      ],
      "stateMutability": "view",
      "type": "function"
    },
    {
      "inputs": [],
      "name": "getMessage",
      "outputs": [
        {
          "internalType": "string",
          "name": "",
          "type": "string"
        }
      ],
      "stateMutability": "view",
      "type": "function"
    },
    {
      "inputs": [],
      "name": "getTokenIds",
      "outputs": [
        {
          "internalType": "uint256",
          "name": "",
          "type": "uint256"
        }
      ],
      "stateMutability": "view",
      "type": "function"
    },
    {
      "inputs": [
        {
          "internalType": "address",
          "name": "owner",
          "type": "address"
        },
        {
          "internalType": "address",
          "name": "operator",
          "type": "address"
        }
      ],
      "name": "isApprovedForAll",
      "outputs": [
        {
          "internalType": "bool",
          "name": "",
          "type": "bool"
        }
      ],
      "stateMutability": "view",
      "type": "function"
    },
    {
      "inputs": [
        {
          "internalType": "uint256",
          "name": "_count",
          "type": "uint256"
        }
      ],
      "name": "mintNFTs",
      "outputs": [],
      "stateMutability": "payable",
      "type": "function"
    },
    {
      "inputs": [],
      "name": "name",
      "outputs": [
        {
          "internalType": "string",
          "name": "",
          "type": "string"
        }
      ],
      "stateMutability": "view",
      "type": "function"
    },
    {
      "inputs": [],
      "name": "owner",
      "outputs": [
        {
          "internalType": "address",
          "name": "",
          "type": "address"
        }
      ],
      "stateMutability": "view",
      "type": "function"
    },
    {
      "inputs": [
        {
          "internalType": "uint256",
          "name": "tokenId",
          "type": "uint256"
        }
      ],
      "name": "ownerOf",
      "outputs": [
        {
          "internalType": "address",
          "name": "",
          "type": "address"
        }
      ],
      "stateMutability": "view",
      "type": "function"
    },
    {
      "inputs": [],
      "name": "renounceOwnership",
      "outputs": [],
      "stateMutability": "nonpayable",
      "type": "function"
    },
    {
      "inputs": [],
      "name": "reserveNFTs",
      "outputs": [],
      "stateMutability": "nonpayable",
      "type": "function"
    },
    {
      "inputs": [
        {
          "internalType": "address",
          "name": "from",
          "type": "address"
        },
        {
          "internalType": "address",
          "name": "to",
          "type": "address"
        },
        {
          "internalType": "uint256",
          "name": "tokenId",
          "type": "uint256"
        }
      ],
      "name": "safeTransferFrom",
      "outputs": [],
      "stateMutability": "nonpayable",
      "type": "function"
    },
    {
      "inputs": [
        {
          "internalType": "address",
          "name": "from",
          "type": "address"
        },
        {
          "internalType": "address",
          "name": "to",
          "type": "address"
        },
        {
          "internalType": "uint256",
          "name": "tokenId",
          "type": "uint256"
        },
        {
          "internalType": "bytes",
          "name": "data",
          "type": "bytes"
        }
      ],
      "name": "safeTransferFrom",
      "outputs": [],
      "stateMutability": "nonpayable",
      "type": "function"
    },
    {
      "inputs": [
        {
          "internalType": "address",
          "name": "operator",
          "type": "address"
        },
        {
          "internalType": "bool",
          "name": "approved",
          "type": "bool"
        }
      ],
      "name": "setApprovalForAll",
      "outputs": [],
      "stateMutability": "nonpayable",
      "type": "function"
    },
    {
      "inputs": [
        {
          "internalType": "string",
          "name": "_baseTokenURI",
          "type": "string"
        }
      ],
      "name": "setBaseURI",
      "outputs": [],
      "stateMutability": "nonpayable",
      "type": "function"
    },
    {
      "inputs": [
        {
          "internalType": "bytes4",
          "name": "interfaceId",
          "type": "bytes4"
        }
      ],
      "name": "supportsInterface",
      "outputs": [
        {
          "internalType": "bool",
          "name": "",
          "type": "bool"
        }
      ],
      "stateMutability": "view",
      "type": "function"
    },
    {
      "inputs": [],
      "name": "symbol",
      "outputs": [
        {
          "internalType": "string",
          "name": "",
          "type": "string"
        }
      ],
      "stateMutability": "view",
      "type": "function"
    },
    {
      "inputs": [
        {
          "internalType": "uint256",
          "name": "index",
          "type": "uint256"
        }
      ],
      "name": "tokenByIndex",
      "outputs": [
        {
          "internalType": "uint256",
          "name": "",
          "type": "uint256"
        }
      ],
      "stateMutability": "view",
      "type": "function"
    },
    {
      "inputs": [
        {
          "internalType": "address",
          "name": "owner",
          "type": "address"
        },
        {
          "internalType": "uint256",
          "name": "index",
          "type": "uint256"
        }
      ],
      "name": "tokenOfOwnerByIndex",
      "outputs": [
        {
          "internalType": "uint256",
          "name": "",
          "type": "uint256"
        }
      ],
      "stateMutability": "view",
      "type": "function"
    },
    {
      "inputs": [
        {
          "internalType": "uint256",
          "name": "tokenId",
          "type": "uint256"
        }
      ],
      "name": "tokenURI",
      "outputs": [
        {
          "internalType": "string",
          "name": "",
          "type": "string"
        }
      ],
      "stateMutability": "view",
      "type": "function"
    },
    {
      "inputs": [
        {
          "internalType": "address",
          "name": "_owner",
          "type": "address"
        }
      ],
      "name": "tokensOfOwner",
      "outputs": [
        {
          "internalType": "uint256[]",
          "name": "",
          "type": "uint256[]"
        }
      ],
      "stateMutability": "view",
      "type": "function"
    },
    {
      "inputs": [],
      "name": "totalSupply",
      "outputs": [
        {
          "internalType": "uint256",
          "name": "",
          "type": "uint256"
        }
      ],
      "stateMutability": "view",
      "type": "function"
    },
    {
      "inputs": [
        {
          "internalType": "address",
          "name": "from",
          "type": "address"
        },
        {
          "internalType": "address",
          "name": "to",
          "type": "address"
        },
        {
          "internalType": "uint256",
          "name": "tokenId",
          "type": "uint256"
        }
      ],
      "name": "transferFrom",
      "outputs": [],
      "stateMutability": "nonpayable",
      "type": "function"
    },
    {
      "inputs": [
        {
          "internalType": "address",
          "name": "newOwner",
          "type": "address"
        }
      ],
      "name": "transferOwnership",
      "outputs": [],
      "stateMutability": "nonpayable",
      "type": "function"
    },
    {
      "inputs": [],
      "name": "withdraw",
      "outputs": [],
      "stateMutability": "payable",
      "type": "function"
    }
  ],
  "bytecode": "0x608060405260405162004bee38038062004bee833981810160405281019062000029919062000525565b6040518060400160405280600f81526020017f4e465420436f6c6c65637469626c6500000000000000000000000000000000008152506040518060400160405280600481526020017f4e465443000000000000000000000000000000000000000000000000000000008152508160009080519060200190620000ad929190620002d8565b508060019080519060200190620000c6929190620002d8565b505050620000e9620000dd6200012360201b60201c565b6200012b60201b60201c565b620000fa81620001f160201b60201c565b606444426200010a9190620005af565b6200011691906200063b565b600d81905550506200075b565b600033905090565b6000600a60009054906101000a900473ffffffffffffffffffffffffffffffffffffffff16905081600a60006101000a81548173ffffffffffffffffffffffffffffffffffffffff021916908373ffffffffffffffffffffffffffffffffffffffff1602179055508173ffffffffffffffffffffffffffffffffffffffff168173ffffffffffffffffffffffffffffffffffffffff167f8be0079c531659141344cd1fd0a4f28419497f9722a3daafe3b4186f6b6457e060405160405180910390a35050565b620002016200021d60201b60201c565b80600c908051906020019062000219929190620002d8565b5050565b6200022d6200012360201b60201c565b73ffffffffffffffffffffffffffffffffffffffff1662000253620002ae60201b60201c565b73ffffffffffffffffffffffffffffffffffffffff1614620002ac576040517f08c379a0000000000000000000000000000000000000000000000000000000008152600401620002a390620006d4565b60405180910390fd5b565b6000600a60009054906101000a900473ffffffffffffffffffffffffffffffffffffffff16905090565b828054620002e69062000725565b90600052602060002090601f0160209004810192826200030a576000855562000356565b82601f106200032557805160ff191683800117855562000356565b8280016001018555821562000356579182015b828111156200035557825182559160200191906001019062000338565b5b50905062000365919062000369565b5090565b5b80821115620003845760008160009055506001016200036a565b5090565b6000604051905090565b600080fd5b600080fd5b600080fd5b600080fd5b6000601f19601f8301169050919050565b7f4e487b7100000000000000000000000000000000000000000000000000000000600052604160045260246000fd5b620003f182620003a6565b810181811067ffffffffffffffff82111715620004135762000412620003b7565b5b80604052505050565b60006200042862000388565b9050620004368282620003e6565b919050565b600067ffffffffffffffff821115620004595762000458620003b7565b5b6200046482620003a6565b9050602081019050919050565b60005b838110156200049157808201518184015260208101905062000474565b83811115620004a1576000848401525b50505050565b6000620004be620004b8846200043b565b6200041c565b905082815260208101848484011115620004dd57620004dc620003a1565b5b620004ea84828562000471565b509392505050565b600082601f8301126200050a57620005096200039c565b5b81516200051c848260208601620004a7565b91505092915050565b6000602082840312156200053e576200053d62000392565b5b600082015167ffffffffffffffff8111156200055f576200055e62000397565b5b6200056d84828501620004f2565b91505092915050565b6000819050919050565b7f4e487b7100000000000000000000000000000000000000000000000000000000600052601160045260246000fd5b6000620005bc8262000576565b9150620005c98362000576565b9250827fffffffffffffffffffffffffffffffffffffffffffffffffffffffffffffffff0382111562000601576200060062000580565b5b828201905092915050565b7f4e487b7100000000000000000000000000000000000000000000000000000000600052601260045260246000fd5b6000620006488262000576565b9150620006558362000576565b9250826200066857620006676200060c565b5b828206905092915050565b600082825260208201905092915050565b7f4f776e61626c653a2063616c6c6572206973206e6f7420746865206f776e6572600082015250565b6000620006bc60208362000673565b9150620006c98262000684565b602082019050919050565b60006020820190508181036000830152620006ef81620006ad565b9050919050565b7f4e487b7100000000000000000000000000000000000000000000000000000000600052602260045260246000fd5b600060028204905060018216806200073e57607f821691505b60208210811415620007555762000754620006f6565b5b50919050565b614483806200076b6000396000f3fe6080604052600436106101cd5760003560e01c80636352211e116100f757806395d89b4111610095578063ce6d41de11610064578063ce6d41de1461065c578063d547cfb714610687578063e985e9c5146106b2578063f2fde38b146106ef576101cd565b806395d89b41146105a2578063a22cb465146105cd578063b88d4fde146105f6578063c87b56dd1461061f576101cd565b8063715018a6116100d1578063715018a6146104f85780638462151c1461050f5780638d859f3e1461054c5780638da5cb5b14610577576101cd565b80636352211e1461045357806367f718a91461049057806370a08231146104bb576101cd565b806323b872dd1161016f5780633ccfd60b1161013e5780633ccfd60b146103ba57806342842e0e146103c45780634f6ccce7146103ed57806355f804b31461042a576101cd565b806323b872dd1461030d5780632f745c591461033657806332cb6b0c146103735780633b4b13811461039e576101cd565b8063095ea7b3116101ab578063095ea7b31461027757806309d42b30146102a0578063144100c7146102cb57806318160ddd146102e2576101cd565b806301ffc9a7146101d257806306fdde031461020f578063081812fc1461023a575b600080fd5b3480156101de57600080fd5b506101f960048036038101906101f49190612c48565b610718565b6040516102069190612c90565b60405180910390f35b34801561021b57600080fd5b50610224610792565b6040516102319190612d44565b60405180910390f35b34801561024657600080fd5b50610261600480360381019061025c9190612d9c565b610824565b60405161026e9190612e0a565b60405180910390f35b34801561028357600080fd5b5061029e60048036038101906102999190612e51565b61086a565b005b3480156102ac57600080fd5b506102b5610982565b6040516102c29190612ea0565b60405180910390f35b3480156102d757600080fd5b506102e0610987565b005b3480156102ee57600080fd5b506102f7610a1e565b6040516103049190612ea0565b60405180910390f35b34801561031957600080fd5b50610334600480360381019061032f9190612ebb565b610a2b565b005b34801561034257600080fd5b5061035d60048036038101906103589190612e51565b610a8b565b60405161036a9190612ea0565b60405180910390f35b34801561037f57600080fd5b50610388610b30565b6040516103959190612ea0565b60405180910390f35b6103b860048036038101906103b39190612d9c565b610b35565b005b6103c2610f3f565b005b3480156103d057600080fd5b506103eb60048036038101906103e69190612ebb565b61103f565b005b3480156103f957600080fd5b50610414600480360381019061040f9190612d9c565b61105f565b6040516104219190612ea0565b60405180910390f35b34801561043657600080fd5b50610451600480360381019061044c9190613043565b6110d0565b005b34801561045f57600080fd5b5061047a60048036038101906104759190612d9c565b6110f2565b6040516104879190612e0a565b60405180910390f35b34801561049c57600080fd5b506104a56111a4565b6040516104b29190612ea0565b60405180910390f35b3480156104c757600080fd5b506104e260048036038101906104dd919061308c565b6111b5565b6040516104ef9190612ea0565b60405180910390f35b34801561050457600080fd5b5061050d61126d565b005b34801561051b57600080fd5b506105366004803603810190610531919061308c565b611281565b6040516105439190613177565b60405180910390f35b34801561055857600080fd5b5061056161132f565b60405161056e9190612ea0565b60405180910390f35b34801561058357600080fd5b5061058c61133a565b6040516105999190612e0a565b60405180910390f35b3480156105ae57600080fd5b506105b7611364565b6040516105c49190612d44565b60405180910390f35b3480156105d957600080fd5b506105f460048036038101906105ef91906131c5565b6113f6565b005b34801561060257600080fd5b5061061d600480360381019061061891906132a6565b61140c565b005b34801561062b57600080fd5b5061064660048036038101906106419190612d9c565b61146e565b6040516106539190612d44565b60405180910390f35b34801561066857600080fd5b506106716114d6565b60405161067e9190612d44565b60405180910390f35b34801561069357600080fd5b5061069c611568565b6040516106a99190612d44565b60405180910390f35b3480156106be57600080fd5b506106d960048036038101906106d49190613329565b6115f6565b6040516106e69190612c90565b60405180910390f35b3480156106fb57600080fd5b506107166004803603810190610711919061308c565b61168a565b005b60007f780e9d63000000000000000000000000000000000000000000000000000000007bffffffffffffffffffffffffffffffffffffffffffffffffffffffff1916827bffffffffffffffffffffffffffffffffffffffffffffffffffffffff1916148061078b575061078a8261170e565b5b9050919050565b6060600080546107a190613398565b80601f01602080910402602001604051908101604052809291908181526020018280546107cd90613398565b801561081a5780601f106107ef5761010080835404028352916020019161081a565b820191906000526020600020905b8154815290600101906020018083116107fd57829003601f168201915b5050505050905090565b600061082f826117f0565b6004600083815260200190815260200160002060009054906101000a900473ffffffffffffffffffffffffffffffffffffffff169050919050565b6000610875826110f2565b90508073ffffffffffffffffffffffffffffffffffffffff168373ffffffffffffffffffffffffffffffffffffffff1614156108e6576040517f08c379a00000000000000000000000000000000000000000000000000000000081526004016108dd9061343c565b60405180910390fd5b8073ffffffffffffffffffffffffffffffffffffffff1661090561183b565b73ffffffffffffffffffffffffffffffffffffffff16148061093457506109338161092e61183b565b6115f6565b5b610973576040517f08c379a000000000000000000000000000000000000000000000000000000000815260040161096a906134ce565b60405180910390fd5b61097d8383611843565b505050565b600381565b61098f6118fc565b600061099b600b61197a565b905060326109b3600a8361198890919063ffffffff16565b106109f3576040517f08c379a00000000000000000000000000000000000000000000000000000000081526004016109ea9061353a565b60405180910390fd5b60005b600a811015610a1a57610a0761199e565b8080610a1290613589565b9150506109f6565b5050565b6000600880549050905090565b610a3c610a3661183b565b826119c3565b610a7b576040517f08c379a0000000000000000000000000000000000000000000000000000000008152600401610a7290613644565b60405180910390fd5b610a86838383611a58565b505050565b6000610a96836111b5565b8210610ad7576040517f08c379a0000000000000000000000000000000000000000000000000000000008152600401610ace906136d6565b60405180910390fd5b600660008473ffffffffffffffffffffffffffffffffffffffff1673ffffffffffffffffffffffffffffffffffffffff168152602001908152602001600020600083815260200190815260200160002054905092915050565b603281565b6000610b41600b61197a565b90506032610b58838361198890919063ffffffff16565b1115610b99576040517f08c379a0000000000000000000000000000000000000000000000000000000008152600401610b9090613742565b60405180910390fd5b600082118015610baa575060038211155b610be9576040517f08c379a0000000000000000000000000000000000000000000000000000000008152600401610be0906137d4565b60405180910390fd5b610c0382662386f26fc10000611cbf90919063ffffffff16565b341015610c45576040517f08c379a0000000000000000000000000000000000000000000000000000000008152600401610c3c90613866565b60405180910390fd5b60005b82811015610c6b57610c5861199e565b8080610c6390613589565b915050610c48565b506064600d544244610c7d9190613886565b610c879190613886565b610c91919061390b565b600d8190555060006001831415610cab57601e9050610ccd565b6002831415610cbd5760289050610ccc565b6003831415610ccb57603290505b5b5b80600d5411610e7557610d156040518060400160405280600781526020017f257320776f6e210000000000000000000000000000000000000000000000000081525033611cd5565b6040518060400160405280600881526020017f596f7520776f6e21000000000000000000000000000000000000000000000000815250600e9080519060200190610d60929190612b39565b506000610d7d84662386f26fc10000611cbf90919063ffffffff16565b905047811115610dc2576040517f08c379a0000000000000000000000000000000000000000000000000000000008152600401610db9906139ae565b60405180910390fd5b60003373ffffffffffffffffffffffffffffffffffffffff1682604051610de8906139ff565b60006040518083038185875af1925050503d8060008114610e25576040519150601f19603f3d011682016040523d82523d6000602084013e610e2a565b606091505b5050905080610e6e576040517f08c379a0000000000000000000000000000000000000000000000000000000008152600401610e6590613a86565b60405180910390fd5b5050610ec2565b6040518060400160405280600981526020017f596f75206c6f7374210000000000000000000000000000000000000000000000815250600e9080519060200190610ec0929190612b39565b505b7f4e22820b416215134457b93f7c202c11adcbb74c9c76f41e1097081434567547600e604051610ef29190613b3b565b60405180910390a17f721dcf09d65813de25914b85c0ccb68dc942592df0f1a1b3a1d197edcaba5127610f25600b61197a565b604051610f329190612ea0565b60405180910390a1505050565b610f476118fc565b600047905060008111610f8f576040517f08c379a0000000000000000000000000000000000000000000000000000000008152600401610f8690613ba9565b60405180910390fd5b60003373ffffffffffffffffffffffffffffffffffffffff1682604051610fb5906139ff565b60006040518083038185875af1925050503d8060008114610ff2576040519150601f19603f3d011682016040523d82523d6000602084013e610ff7565b606091505b505090508061103b576040517f08c379a000000000000000000000000000000000000000000000000000000000815260040161103290613c15565b60405180910390fd5b5050565b61105a8383836040518060200160405280600081525061140c565b505050565b6000611069610a1e565b82106110aa576040517f08c379a00000000000000000000000000000000000000000000000000000000081526004016110a190613ca7565b60405180910390fd5b600882815481106110be576110bd613cc7565b5b90600052602060002001549050919050565b6110d86118fc565b80600c90805190602001906110ee929190612b39565b5050565b6000806002600084815260200190815260200160002060009054906101000a900473ffffffffffffffffffffffffffffffffffffffff169050600073ffffffffffffffffffffffffffffffffffffffff168173ffffffffffffffffffffffffffffffffffffffff16141561119b576040517f08c379a000000000000000000000000000000000000000000000000000000000815260040161119290613d42565b60405180910390fd5b80915050919050565b60006111b0600b61197a565b905090565b60008073ffffffffffffffffffffffffffffffffffffffff168273ffffffffffffffffffffffffffffffffffffffff161415611226576040517f08c379a000000000000000000000000000000000000000000000000000000000815260040161121d90613dd4565b60405180910390fd5b600360008373ffffffffffffffffffffffffffffffffffffffff1673ffffffffffffffffffffffffffffffffffffffff168152602001908152602001600020549050919050565b6112756118fc565b61127f6000611d71565b565b6060600061128e836111b5565b905060008167ffffffffffffffff8111156112ac576112ab612f18565b5b6040519080825280602002602001820160405280156112da5781602001602082028036833780820191505090505b50905060005b82811015611324576112f28582610a8b565b82828151811061130557611304613cc7565b5b602002602001018181525050808061131c90613589565b9150506112e0565b508092505050919050565b662386f26fc1000081565b6000600a60009054906101000a900473ffffffffffffffffffffffffffffffffffffffff16905090565b60606001805461137390613398565b80601f016020809104026020016040519081016040528092919081815260200182805461139f90613398565b80156113ec5780601f106113c1576101008083540402835291602001916113ec565b820191906000526020600020905b8154815290600101906020018083116113cf57829003601f168201915b5050505050905090565b61140861140161183b565b8383611e37565b5050565b61141d61141761183b565b836119c3565b61145c576040517f08c379a000000000000000000000000000000000000000000000000000000000815260040161145390613644565b60405180910390fd5b61146884848484611fa4565b50505050565b6060611479826117f0565b6000611483612000565b905060008151116114a357604051806020016040528060008152506114ce565b806114ad84612092565b6040516020016114be929190613e30565b6040516020818303038152906040525b915050919050565b6060600e80546114e590613398565b80601f016020809104026020016040519081016040528092919081815260200182805461151190613398565b801561155e5780601f106115335761010080835404028352916020019161155e565b820191906000526020600020905b81548152906001019060200180831161154157829003601f168201915b5050505050905090565b600c805461157590613398565b80601f01602080910402602001604051908101604052809291908181526020018280546115a190613398565b80156115ee5780601f106115c3576101008083540402835291602001916115ee565b820191906000526020600020905b8154815290600101906020018083116115d157829003601f168201915b505050505081565b6000600560008473ffffffffffffffffffffffffffffffffffffffff1673ffffffffffffffffffffffffffffffffffffffff16815260200190815260200160002060008373ffffffffffffffffffffffffffffffffffffffff1673ffffffffffffffffffffffffffffffffffffffff16815260200190815260200160002060009054906101000a900460ff16905092915050565b6116926118fc565b600073ffffffffffffffffffffffffffffffffffffffff168173ffffffffffffffffffffffffffffffffffffffff161415611702576040517f08c379a00000000000000000000000000000000000000000000000000000000081526004016116f990613ec6565b60405180910390fd5b61170b81611d71565b50565b60007f80ac58cd000000000000000000000000000000000000000000000000000000007bffffffffffffffffffffffffffffffffffffffffffffffffffffffff1916827bffffffffffffffffffffffffffffffffffffffffffffffffffffffff191614806117d957507f5b5e139f000000000000000000000000000000000000000000000000000000007bffffffffffffffffffffffffffffffffffffffffffffffffffffffff1916827bffffffffffffffffffffffffffffffffffffffffffffffffffffffff1916145b806117e957506117e8826121f3565b5b9050919050565b6117f98161225d565b611838576040517f08c379a000000000000000000000000000000000000000000000000000000000815260040161182f90613d42565b60405180910390fd5b50565b600033905090565b816004600083815260200190815260200160002060006101000a81548173ffffffffffffffffffffffffffffffffffffffff021916908373ffffffffffffffffffffffffffffffffffffffff160217905550808273ffffffffffffffffffffffffffffffffffffffff166118b6836110f2565b73ffffffffffffffffffffffffffffffffffffffff167f8c5be1e5ebec7d5bd14f71427d1e84f3dd0314c0f7b2291e5b200ac8c7c3b92560405160405180910390a45050565b61190461183b565b73ffffffffffffffffffffffffffffffffffffffff1661192261133a565b73ffffffffffffffffffffffffffffffffffffffff1614611978576040517f08c379a000000000000000000000000000000000000000000000000000000000815260040161196f90613f32565b60405180910390fd5b565b600081600001549050919050565b600081836119969190613886565b905092915050565b60006119aa600b61197a565b90506119b633826122c9565b6119c0600b6122e7565b50565b6000806119cf836110f2565b90508073ffffffffffffffffffffffffffffffffffffffff168473ffffffffffffffffffffffffffffffffffffffff161480611a115750611a1081856115f6565b5b80611a4f57508373ffffffffffffffffffffffffffffffffffffffff16611a3784610824565b73ffffffffffffffffffffffffffffffffffffffff16145b91505092915050565b8273ffffffffffffffffffffffffffffffffffffffff16611a78826110f2565b73ffffffffffffffffffffffffffffffffffffffff1614611ace576040517f08c379a0000000000000000000000000000000000000000000000000000000008152600401611ac590613fc4565b60405180910390fd5b600073ffffffffffffffffffffffffffffffffffffffff168273ffffffffffffffffffffffffffffffffffffffff161415611b3e576040517f08c379a0000000000000000000000000000000000000000000000000000000008152600401611b3590614056565b60405180910390fd5b611b498383836122fd565b611b54600082611843565b6001600360008573ffffffffffffffffffffffffffffffffffffffff1673ffffffffffffffffffffffffffffffffffffffff1681526020019081526020016000206000828254611ba49190614076565b925050819055506001600360008473ffffffffffffffffffffffffffffffffffffffff1673ffffffffffffffffffffffffffffffffffffffff1681526020019081526020016000206000828254611bfb9190613886565b92505081905550816002600083815260200190815260200160002060006101000a81548173ffffffffffffffffffffffffffffffffffffffff021916908373ffffffffffffffffffffffffffffffffffffffff160217905550808273ffffffffffffffffffffffffffffffffffffffff168473ffffffffffffffffffffffffffffffffffffffff167fddf252ad1be2c89b69c2b068fc378daa952ba7f163c4a11628f55a4df523b3ef60405160405180910390a4611cba838383612411565b505050565b60008183611ccd91906140aa565b905092915050565b611d6d8282604051602401611ceb929190614104565b6040516020818303038152906040527f319af333000000000000000000000000000000000000000000000000000000007bffffffffffffffffffffffffffffffffffffffffffffffffffffffff19166020820180517bffffffffffffffffffffffffffffffffffffffffffffffffffffffff8381831617835250505050612416565b5050565b6000600a60009054906101000a900473ffffffffffffffffffffffffffffffffffffffff16905081600a60006101000a81548173ffffffffffffffffffffffffffffffffffffffff021916908373ffffffffffffffffffffffffffffffffffffffff1602179055508173ffffffffffffffffffffffffffffffffffffffff168173ffffffffffffffffffffffffffffffffffffffff167f8be0079c531659141344cd1fd0a4f28419497f9722a3daafe3b4186f6b6457e060405160405180910390a35050565b8173ffffffffffffffffffffffffffffffffffffffff168373ffffffffffffffffffffffffffffffffffffffff161415611ea6576040517f08c379a0000000000000000000000000000000000000000000000000000000008152600401611e9d90614180565b60405180910390fd5b80600560008573ffffffffffffffffffffffffffffffffffffffff1673ffffffffffffffffffffffffffffffffffffffff16815260200190815260200160002060008473ffffffffffffffffffffffffffffffffffffffff1673ffffffffffffffffffffffffffffffffffffffff16815260200190815260200160002060006101000a81548160ff0219169083151502179055508173ffffffffffffffffffffffffffffffffffffffff168373ffffffffffffffffffffffffffffffffffffffff167f17307eab39ab6107e8899845ad3d59bd9653f200f220920489ca2b5937696c3183604051611f979190612c90565b60405180910390a3505050565b611faf848484611a58565b611fbb8484848461243f565b611ffa576040517f08c379a0000000000000000000000000000000000000000000000000000000008152600401611ff190614212565b60405180910390fd5b50505050565b6060600c805461200f90613398565b80601f016020809104026020016040519081016040528092919081815260200182805461203b90613398565b80156120885780601f1061205d57610100808354040283529160200191612088565b820191906000526020600020905b81548152906001019060200180831161206b57829003601f168201915b5050505050905090565b606060008214156120da576040518060400160405280600181526020017f300000000000000000000000000000000000000000000000000000000000000081525090506121ee565b600082905060005b6000821461210c5780806120f590613589565b915050600a826121059190614232565b91506120e2565b60008167ffffffffffffffff81111561212857612127612f18565b5b6040519080825280601f01601f19166020018201604052801561215a5781602001600182028036833780820191505090505b5090505b600085146121e7576001826121739190614076565b9150600a85612182919061390b565b603061218e9190613886565b60f81b8183815181106121a4576121a3613cc7565b5b60200101907effffffffffffffffffffffffffffffffffffffffffffffffffffffffffffff1916908160001a905350600a856121e09190614232565b945061215e565b8093505050505b919050565b60007f01ffc9a7000000000000000000000000000000000000000000000000000000007bffffffffffffffffffffffffffffffffffffffffffffffffffffffff1916827bffffffffffffffffffffffffffffffffffffffffffffffffffffffff1916149050919050565b60008073ffffffffffffffffffffffffffffffffffffffff166002600084815260200190815260200160002060009054906101000a900473ffffffffffffffffffffffffffffffffffffffff1673ffffffffffffffffffffffffffffffffffffffff1614159050919050565b6122e38282604051806020016040528060008152506125d6565b5050565b6001816000016000828254019250508190555050565b612308838383612631565b600073ffffffffffffffffffffffffffffffffffffffff168373ffffffffffffffffffffffffffffffffffffffff16141561234b5761234681612636565b61238a565b8173ffffffffffffffffffffffffffffffffffffffff168373ffffffffffffffffffffffffffffffffffffffff161461238957612388838261267f565b5b5b600073ffffffffffffffffffffffffffffffffffffffff168273ffffffffffffffffffffffffffffffffffffffff1614156123cd576123c8816127ec565b61240c565b8273ffffffffffffffffffffffffffffffffffffffff168273ffffffffffffffffffffffffffffffffffffffff161461240b5761240a82826128bd565b5b5b505050565b505050565b60008151905060006a636f6e736f6c652e6c6f679050602083016000808483855afa5050505050565b60006124608473ffffffffffffffffffffffffffffffffffffffff1661293c565b156125c9578373ffffffffffffffffffffffffffffffffffffffff1663150b7a0261248961183b565b8786866040518563ffffffff1660e01b81526004016124ab94939291906142b8565b602060405180830381600087803b1580156124c557600080fd5b505af19250505080156124f657506040513d601f19601f820116820180604052508101906124f39190614319565b60015b612579573d8060008114612526576040519150601f19603f3d011682016040523d82523d6000602084013e61252b565b606091505b50600081511415612571576040517f08c379a000000000000000000000000000000000000000000000000000000000815260040161256890614212565b60405180910390fd5b805181602001fd5b63150b7a0260e01b7bffffffffffffffffffffffffffffffffffffffffffffffffffffffff1916817bffffffffffffffffffffffffffffffffffffffffffffffffffffffff1916149150506125ce565b600190505b949350505050565b6125e0838361295f565b6125ed600084848461243f565b61262c576040517f08c379a000000000000000000000000000000000000000000000000000000000815260040161262390614212565b60405180910390fd5b505050565b505050565b6008805490506009600083815260200190815260200160002081905550600881908060018154018082558091505060019003906000526020600020016000909190919091505550565b6000600161268c846111b5565b6126969190614076565b905060006007600084815260200190815260200160002054905081811461277b576000600660008673ffffffffffffffffffffffffffffffffffffffff1673ffffffffffffffffffffffffffffffffffffffff168152602001908152602001600020600084815260200190815260200160002054905080600660008773ffffffffffffffffffffffffffffffffffffffff1673ffffffffffffffffffffffffffffffffffffffff168152602001908152602001600020600084815260200190815260200160002081905550816007600083815260200190815260200160002081905550505b6007600084815260200190815260200160002060009055600660008573ffffffffffffffffffffffffffffffffffffffff1673ffffffffffffffffffffffffffffffffffffffff16815260200190815260200160002060008381526020019081526020016000206000905550505050565b600060016008805490506128009190614076565b90506000600960008481526020019081526020016000205490506000600883815481106128305761282f613cc7565b5b90600052602060002001549050806008838154811061285257612851613cc7565b5b9060005260206000200181905550816009600083815260200190815260200160002081905550600960008581526020019081526020016000206000905560088054806128a1576128a0614346565b5b6001900381819060005260206000200160009055905550505050565b60006128c8836111b5565b905081600660008573ffffffffffffffffffffffffffffffffffffffff1673ffffffffffffffffffffffffffffffffffffffff168152602001908152602001600020600083815260200190815260200160002081905550806007600084815260200190815260200160002081905550505050565b6000808273ffffffffffffffffffffffffffffffffffffffff163b119050919050565b600073ffffffffffffffffffffffffffffffffffffffff168273ffffffffffffffffffffffffffffffffffffffff1614156129cf576040517f08c379a00000000000000000000000000000000000000000000000000000000081526004016129c6906143c1565b60405180910390fd5b6129d88161225d565b15612a18576040517f08c379a0000000000000000000000000000000000000000000000000000000008152600401612a0f9061442d565b60405180910390fd5b612a24600083836122fd565b6001600360008473ffffffffffffffffffffffffffffffffffffffff1673ffffffffffffffffffffffffffffffffffffffff1681526020019081526020016000206000828254612a749190613886565b92505081905550816002600083815260200190815260200160002060006101000a81548173ffffffffffffffffffffffffffffffffffffffff021916908373ffffffffffffffffffffffffffffffffffffffff160217905550808273ffffffffffffffffffffffffffffffffffffffff16600073ffffffffffffffffffffffffffffffffffffffff167fddf252ad1be2c89b69c2b068fc378daa952ba7f163c4a11628f55a4df523b3ef60405160405180910390a4612b3560008383612411565b5050565b828054612b4590613398565b90600052602060002090601f016020900481019282612b675760008555612bae565b82601f10612b8057805160ff1916838001178555612bae565b82800160010185558215612bae579182015b82811115612bad578251825591602001919060010190612b92565b5b509050612bbb9190612bbf565b5090565b5b80821115612bd8576000816000905550600101612bc0565b5090565b6000604051905090565b600080fd5b600080fd5b60007fffffffff0000000000000000000000000000000000000000000000000000000082169050919050565b612c2581612bf0565b8114612c3057600080fd5b50565b600081359050612c4281612c1c565b92915050565b600060208284031215612c5e57612c5d612be6565b5b6000612c6c84828501612c33565b91505092915050565b60008115159050919050565b612c8a81612c75565b82525050565b6000602082019050612ca56000830184612c81565b92915050565b600081519050919050565b600082825260208201905092915050565b60005b83811015612ce5578082015181840152602081019050612cca565b83811115612cf4576000848401525b50505050565b6000601f19601f8301169050919050565b6000612d1682612cab565b612d208185612cb6565b9350612d30818560208601612cc7565b612d3981612cfa565b840191505092915050565b60006020820190508181036000830152612d5e8184612d0b565b905092915050565b6000819050919050565b612d7981612d66565b8114612d8457600080fd5b50565b600081359050612d9681612d70565b92915050565b600060208284031215612db257612db1612be6565b5b6000612dc084828501612d87565b91505092915050565b600073ffffffffffffffffffffffffffffffffffffffff82169050919050565b6000612df482612dc9565b9050919050565b612e0481612de9565b82525050565b6000602082019050612e1f6000830184612dfb565b92915050565b612e2e81612de9565b8114612e3957600080fd5b50565b600081359050612e4b81612e25565b92915050565b60008060408385031215612e6857612e67612be6565b5b6000612e7685828601612e3c565b9250506020612e8785828601612d87565b9150509250929050565b612e9a81612d66565b82525050565b6000602082019050612eb56000830184612e91565b92915050565b600080600060608486031215612ed457612ed3612be6565b5b6000612ee286828701612e3c565b9350506020612ef386828701612e3c565b9250506040612f0486828701612d87565b9150509250925092565b600080fd5b600080fd5b7f4e487b7100000000000000000000000000000000000000000000000000000000600052604160045260246000fd5b612f5082612cfa565b810181811067ffffffffffffffff82111715612f6f57612f6e612f18565b5b80604052505050565b6000612f82612bdc565b9050612f8e8282612f47565b919050565b600067ffffffffffffffff821115612fae57612fad612f18565b5b612fb782612cfa565b9050602081019050919050565b82818337600083830152505050565b6000612fe6612fe184612f93565b612f78565b90508281526020810184848401111561300257613001612f13565b5b61300d848285612fc4565b509392505050565b600082601f83011261302a57613029612f0e565b5b813561303a848260208601612fd3565b91505092915050565b60006020828403121561305957613058612be6565b5b600082013567ffffffffffffffff81111561307757613076612beb565b5b61308384828501613015565b91505092915050565b6000602082840312156130a2576130a1612be6565b5b60006130b084828501612e3c565b91505092915050565b600081519050919050565b600082825260208201905092915050565b6000819050602082019050919050565b6130ee81612d66565b82525050565b600061310083836130e5565b60208301905092915050565b6000602082019050919050565b6000613124826130b9565b61312e81856130c4565b9350613139836130d5565b8060005b8381101561316a57815161315188826130f4565b975061315c8361310c565b92505060018101905061313d565b5085935050505092915050565b600060208201905081810360008301526131918184613119565b905092915050565b6131a281612c75565b81146131ad57600080fd5b50565b6000813590506131bf81613199565b92915050565b600080604083850312156131dc576131db612be6565b5b60006131ea85828601612e3c565b92505060206131fb858286016131b0565b9150509250929050565b600067ffffffffffffffff8211156132205761321f612f18565b5b61322982612cfa565b9050602081019050919050565b600061324961324484613205565b612f78565b90508281526020810184848401111561326557613264612f13565b5b613270848285612fc4565b509392505050565b600082601f83011261328d5761328c612f0e565b5b813561329d848260208601613236565b91505092915050565b600080600080608085870312156132c0576132bf612be6565b5b60006132ce87828801612e3c565b94505060206132df87828801612e3c565b93505060406132f087828801612d87565b925050606085013567ffffffffffffffff81111561331157613310612beb565b5b61331d87828801613278565b91505092959194509250565b600080604083850312156133405761333f612be6565b5b600061334e85828601612e3c565b925050602061335f85828601612e3c565b9150509250929050565b7f4e487b7100000000000000000000000000000000000000000000000000000000600052602260045260246000fd5b600060028204905060018216806133b057607f821691505b602082108114156133c4576133c3613369565b5b50919050565b7f4552433732313a20617070726f76616c20746f2063757272656e74206f776e6560008201527f7200000000000000000000000000000000000000000000000000000000000000602082015250565b6000613426602183612cb6565b9150613431826133ca565b604082019050919050565b6000602082019050818103600083015261345581613419565b9050919050565b7f4552433732313a20617070726f76652063616c6c6572206973206e6f7420746f60008201527f6b656e206f776e6572206e6f7220617070726f76656420666f7220616c6c0000602082015250565b60006134b8603e83612cb6565b91506134c38261345c565b604082019050919050565b600060208201905081810360008301526134e7816134ab565b9050919050565b7f4e6f7420656e6f756768204e4654730000000000000000000000000000000000600082015250565b6000613524600f83612cb6565b915061352f826134ee565b602082019050919050565b6000602082019050818103600083015261355381613517565b9050919050565b7f4e487b7100000000000000000000000000000000000000000000000000000000600052601160045260246000fd5b600061359482612d66565b91507fffffffffffffffffffffffffffffffffffffffffffffffffffffffffffffffff8214156135c7576135c661355a565b5b600182019050919050565b7f4552433732313a2063616c6c6572206973206e6f7420746f6b656e206f776e6560008201527f72206e6f7220617070726f766564000000000000000000000000000000000000602082015250565b600061362e602e83612cb6565b9150613639826135d2565b604082019050919050565b6000602082019050818103600083015261365d81613621565b9050919050565b7f455243373231456e756d657261626c653a206f776e657220696e646578206f7560008201527f74206f6620626f756e6473000000000000000000000000000000000000000000602082015250565b60006136c0602b83612cb6565b91506136cb82613664565b604082019050919050565b600060208201905081810360008301526136ef816136b3565b9050919050565b7f4e6f7420656e6f756768204e4654732100000000000000000000000000000000600082015250565b600061372c601083612cb6565b9150613737826136f6565b602082019050919050565b6000602082019050818103600083015261375b8161371f565b9050919050565b7f43616e6e6f74206d696e7420737065636966696564206e756d626572206f662060008201527f4e4654732e000000000000000000000000000000000000000000000000000000602082015250565b60006137be602583612cb6565b91506137c982613762565b604082019050919050565b600060208201905081810360008301526137ed816137b1565b9050919050565b7f4e6f7420656e6f75676820657468657220746f207075726368617365204e465460008201527f732e000000000000000000000000000000000000000000000000000000000000602082015250565b6000613850602283612cb6565b915061385b826137f4565b604082019050919050565b6000602082019050818103600083015261387f81613843565b9050919050565b600061389182612d66565b915061389c83612d66565b9250827fffffffffffffffffffffffffffffffffffffffffffffffffffffffffffffffff038211156138d1576138d061355a565b5b828201905092915050565b7f4e487b7100000000000000000000000000000000000000000000000000000000600052601260045260246000fd5b600061391682612d66565b915061392183612d66565b925082613931576139306138dc565b5b828206905092915050565b7f547279696e6720746f207769746864726177206d6f7265206d6f6e657920746860008201527f616e207468657920636f6e7472616374206861732e0000000000000000000000602082015250565b6000613998603583612cb6565b91506139a38261393c565b604082019050919050565b600060208201905081810360008301526139c78161398b565b9050919050565b600081905092915050565b50565b60006139e96000836139ce565b91506139f4826139d9565b600082019050919050565b6000613a0a826139dc565b9150819050919050565b7f4661696c656420746f207769746864726177206d6f6e65792066726f6d20636f60008201527f6e74726163742e00000000000000000000000000000000000000000000000000602082015250565b6000613a70602783612cb6565b9150613a7b82613a14565b604082019050919050565b60006020820190508181036000830152613a9f81613a63565b9050919050565b60008190508160005260206000209050919050565b60008154613ac881613398565b613ad28186612cb6565b94506001821660008114613aed5760018114613aff57613b32565b60ff1983168652602086019350613b32565b613b0885613aa6565b60005b83811015613b2a57815481890152600182019150602081019050613b0b565b808801955050505b50505092915050565b60006020820190508181036000830152613b558184613abb565b905092915050565b7f4e6f206574686572206c65667420746f20776974686472617700000000000000600082015250565b6000613b93601983612cb6565b9150613b9e82613b5d565b602082019050919050565b60006020820190508181036000830152613bc281613b86565b9050919050565b7f5472616e73666572206661696c65642e00000000000000000000000000000000600082015250565b6000613bff601083612cb6565b9150613c0a82613bc9565b602082019050919050565b60006020820190508181036000830152613c2e81613bf2565b9050919050565b7f455243373231456e756d657261626c653a20676c6f62616c20696e646578206f60008201527f7574206f6620626f756e64730000000000000000000000000000000000000000602082015250565b6000613c91602c83612cb6565b9150613c9c82613c35565b604082019050919050565b60006020820190508181036000830152613cc081613c84565b9050919050565b7f4e487b7100000000000000000000000000000000000000000000000000000000600052603260045260246000fd5b7f4552433732313a20696e76616c696420746f6b656e2049440000000000000000600082015250565b6000613d2c601883612cb6565b9150613d3782613cf6565b602082019050919050565b60006020820190508181036000830152613d5b81613d1f565b9050919050565b7f4552433732313a2061646472657373207a65726f206973206e6f74206120766160008201527f6c6964206f776e65720000000000000000000000000000000000000000000000602082015250565b6000613dbe602983612cb6565b9150613dc982613d62565b604082019050919050565b60006020820190508181036000830152613ded81613db1565b9050919050565b600081905092915050565b6000613e0a82612cab565b613e148185613df4565b9350613e24818560208601612cc7565b80840191505092915050565b6000613e3c8285613dff565b9150613e488284613dff565b91508190509392505050565b7f4f776e61626c653a206e6577206f776e657220697320746865207a65726f206160008201527f6464726573730000000000000000000000000000000000000000000000000000602082015250565b6000613eb0602683612cb6565b9150613ebb82613e54565b604082019050919050565b60006020820190508181036000830152613edf81613ea3565b9050919050565b7f4f776e61626c653a2063616c6c6572206973206e6f7420746865206f776e6572600082015250565b6000613f1c602083612cb6565b9150613f2782613ee6565b602082019050919050565b60006020820190508181036000830152613f4b81613f0f565b9050919050565b7f4552433732313a207472616e736665722066726f6d20696e636f72726563742060008201527f6f776e6572000000000000000000000000000000000000000000000000000000602082015250565b6000613fae602583612cb6565b9150613fb982613f52565b604082019050919050565b60006020820190508181036000830152613fdd81613fa1565b9050919050565b7f4552433732313a207472616e7366657220746f20746865207a65726f2061646460008201527f7265737300000000000000000000000000000000000000000000000000000000602082015250565b6000614040602483612cb6565b915061404b82613fe4565b604082019050919050565b6000602082019050818103600083015261406f81614033565b9050919050565b600061408182612d66565b915061408c83612d66565b92508282101561409f5761409e61355a565b5b828203905092915050565b60006140b582612d66565b91506140c083612d66565b9250817fffffffffffffffffffffffffffffffffffffffffffffffffffffffffffffffff04831182151516156140f9576140f861355a565b5b828202905092915050565b6000604082019050818103600083015261411e8185612d0b565b905061412d6020830184612dfb565b9392505050565b7f4552433732313a20617070726f766520746f2063616c6c657200000000000000600082015250565b600061416a601983612cb6565b915061417582614134565b602082019050919050565b600060208201905081810360008301526141998161415d565b9050919050565b7f4552433732313a207472616e7366657220746f206e6f6e20455243373231526560008201527f63656976657220696d706c656d656e7465720000000000000000000000000000602082015250565b60006141fc603283612cb6565b9150614207826141a0565b604082019050919050565b6000602082019050818103600083015261422b816141ef565b9050919050565b600061423d82612d66565b915061424883612d66565b925082614258576142576138dc565b5b828204905092915050565b600081519050919050565b600082825260208201905092915050565b600061428a82614263565b614294818561426e565b93506142a4818560208601612cc7565b6142ad81612cfa565b840191505092915050565b60006080820190506142cd6000830187612dfb565b6142da6020830186612dfb565b6142e76040830185612e91565b81810360608301526142f9818461427f565b905095945050505050565b60008151905061431381612c1c565b92915050565b60006020828403121561432f5761432e612be6565b5b600061433d84828501614304565b91505092915050565b7f4e487b7100000000000000000000000000000000000000000000000000000000600052603160045260246000fd5b7f4552433732313a206d696e7420746f20746865207a65726f2061646472657373600082015250565b60006143ab602083612cb6565b91506143b682614375565b602082019050919050565b600060208201905081810360008301526143da8161439e565b9050919050565b7f4552433732313a20746f6b656e20616c7265616479206d696e74656400000000600082015250565b6000614417601c83612cb6565b9150614422826143e1565b602082019050919050565b600060208201905081810360008301526144468161440a565b905091905056fea2646970667358221220db8bd400a2785e7b249b3682db713d186b23d2e66e1785bab4a9de2e0f69964664736f6c63430008090033",
  "linkReferences": {},
  "deployedLinkReferences": {}
}